:1000000000800020BD010000F92C0000BD2C000084
:10001000BD2C0000BD2C0000BD2C0000BD2C00003C
:10002000BD2C0000BD2C0000BD2C0000F92C0000F0
:10003000F92C0000BD2C0000F92C0000AD2C0000B4
:10004000F92C0000F92C0000F92C0000F92C00001C
:10005000F92C0000F92C0000F92C0000F92C00000C
:10006000F92C0000F92C0000F92C0000F92C0000FC
:10007000F92C0000F92C0000F92C0000F92C0000EC
:10008000F92C0000F92C0000F92C0000F92C0000DC
:10009000F92C0000F92C0000F92C0000F92C0000CC
:1000A000D9270000F92C0000F92C0000F92C0000E1
:1000B000F92C0000F92C0000F92C0000F92C0000AC
:1000C000F92C0000F92C0000F92C0000F92C00009C
:1000D000F92C0000F92C0000F92C0000F92C00008C
:1000E000F92C0000F92C0000F92C0000F92C00007C
:1000F000F92C00006D480000F92C0000D14F0000E1
:10010000F92C00004D550000F92C0000F92C0000DE
:10011000F92C0000F92C0000F92C0000F92C00004B
:10012000F92C0000F92C0000F92C0000F92C00003B
:10013000F92C0000F92C0000F92C0000F92C00002B
:10014000F92C0000F92C0000F92C0000F92C00001B
:10015000F92C0000F92C0000F92C0000F92C00000B
:10016000F92C0000D5320000F92C0000F92C000019
:10017000F92C0000F92C0000F92C0000F92C0000EB
:10018000F92C0000F92C0000F92C0000F92C0000DB
:10019000F92C0000F92C0000F92C0000F92C0000CB
:1001A000F92C0000F92C0000F92C0000F92C0000BB
:1001B000F92C0000F92C0000F92C0000574B4CF2F0
:1001C000205210B51A804DF628121A8000BF00BFC9
:1001D00002F096FD524B4FF010621A60514A9A603D
:1001E000514ADA60A3F53043203B1A6812F480725A
:1001F00004D14E490A604FF4A8521A604C4B1A7849
:10020000110703D51A7842F008021A70494B4A4C7C
:100210004A482A221A704A4A00239918A14203D256
:10022000195899500433F8E7464B474900228B424E
:1002300002D243F8042BFAE74448454900235A58B0
:100240001A500433B3F5DE7FF9D1424B424A802184
:1002500003F8011B9342FBD1404B3C4A1A60404BD0
:100260008A221A70A3F5805324225A70A0221A7091
:100270009A799207FCD59A79D406FCD4394A9379B5
:1002800003F00C03082B374BF9D103221A714022DB
:100290005A719A799006FCD5324A9179314B4906C8
:1002A000FBD5314A314911600221516020221A7078
:1002B0009A7902F00C020C2AFAD12D4B2D4A1A60C1
:1002C0002D4B2E4A1A6000225A60072243F8042C54
:1002D0002B4AC3F80C2D62B602F0BCFE134B1B6810
:1002E000DA0705D5274802F089FD274B274A1A600F
:1002F000274B1B785B0609D5234C244A236893427D
:1003000004D1204802F07AFD0023236007F02EFC80
:1003100002F0FCFC03F044FDFEE700BF0E200540A8
:1003200030800440823F04000100002B14D00340C1
:1003300002D0074000E007403494FF1F08910000FE
:100340006087FF1F3494FF1FDC98FF1F0082FF1F90
:100350000000000000E400E05FE400E008ED00E0E1
:100360000050064000400640448004400000030165
:1003700004800440C010050014E000E0FF76010096
:100380000000202003B3E4011CE00340A5C3945AFD
:1003900000F00740FFFFFFFFFFFFFFFFFFFFFFFF32
:1003A000FFFFFFFFFFFFFFFFFFFFFFFFFFFFFFFF5D
:1003B000FFFFFFFFFFFFFFFFFFFFFFFFFFFFFFFF4D
:1003C000FFFFFFFFFFFFFFFFFFFFFFFFFFFFFFFF3D
:1003D000FFFFFFFFFFFFFFFFFFFFFFFFFFFFFFFF2D
:1003E000FFFFFFFFFFFFFFFFFFFFFFFFFFFFFFFF1D
:1003F000FFFFFFFFFFFFFFFFFFFFFFFFFFFFFFFF0D
:10040000FFFFFFFFFFFFFFFFFFFFFFFFDEF9FFFF23
:1004100010B5054C237833B9044B13B10448AFF33E
:1004200000800123237010BD3494FF1F00000000E2
:100430000891000008B5064B1BB106480649AFF30A
:1004400000800648036813B1054B03B1984708BD07
:1004500000000000089100003894FF1F3494FF1F33
:100460000000000038B505460C46084607F0AAFE15
:1004700002462B685B6828462146984738BD00BF76
:1004800038B504460D46084607F09CFE0246236830
:100490005B682046294698470546204603F09CFCA9
:1004A000284438BD0A4B1B68012B07D0022B0AD009
:1004B0006BB94FF06252074B1A6070474FF06452AD
:1004C000044B1A6070474FF06652024B1A60704737
:1004D0006494FF1FF094FF1F08B5044800F022FE4B
:1004E0000348042101F0FEFC08BD00BFBC94FF1FBF
:1004F0008094FF1F70B503460E461546084C2046F3
:10050000194602F0F9F92046314602F04BF8204630
:10051000294602F047F8204602F020FB70BD00BFDC
:10052000AC95FF1F70B505460E460B4C204629467C
:1005300002F0E2F92046314602F034F8204600216C
:1005400002F0EAF920462946012202F0F3FA204699
:1005500002F054F8C0B270BDAC95FF1F10B5682012
:100560006B210122FFF7C6FF68201A210322FFF743
:10057000C1FF682019210422FFF7BCFF68201B215E
:10058000FFF7D0FF044668201B2104F01F02FFF78D
:10059000B1FF68201B2104F0E702FFF7ABFF174B08
:1005A0001B6844EAC30268201B21D2B2FFF7A2FFF6
:1005B00068201C21FFF7B6FF044668201C2104F0C8
:1005C0001F02FFF797FF68201C2104F0E702FFF7E6
:1005D00091FF0B4B1B6844EAC30268201C21D2B276
:1005E000FFF788FF682037210222FFF783FF68208A
:1005F00038210122FFF77EFF10BD00BF5094FF1F7E
:100600006494FF1FFFFFFFFF2DE9F04F89B00646FE
:1006100068201C21F022FFF76DFF68201B21E022DB
:10062000FFF768FFFA2002F0FFFC68200D21FFF7BA
:1006300079FF814668200E21FFF774FF804668200D
:100640000F21FFF76FFF074668201021FFF76AFFB1
:100650008246C0F3011040EAE900C0B28DF8000004
:10066000CAF3810B4BEAE80B5FFA8BFB8DF801B004
:100670000AF0030A4AEAE70A5FFA8AFA8DF802A04A
:1006800009F01F098DF8039008F01F088DF8048009
:1006900007F01F078DF805705BA5D5E9004507F049
:1006A00041F84FF07E5106F08BFF614907F046F9A3
:1006B00006F024FC02460B462046294605F00CFABB
:1006C00053A3D3E9002306F06DFC06F025FF02904A
:1006D000584607F027F84FF07E5106F071FF544955
:1006E00007F02CF906F00AFC02460B462046294684
:1006F00005F0F2F946A3D3E9002306F053FC06F017
:100700000BFF0390504607F00DF84FF07E5106F0B6
:1007100057FF474907F012F906F0F0FB02460B4677
:100720002046294605F0D8F939A3D3E9002306F07D
:1007300039FC06F0F1FE049037A5D5E9004548469E
:1007400006F0F0FF4FF07E5106F03AFF06F0D6FBC0
:1007500002460B462046294605F0BEF930A3D3E9F0
:10076000002306F01FFC06F0D7FE0590404606F079
:10077000D9FF4FF07E5106F023FF06F0BFFB024683
:100780000B462046294605F0A7F927A3D3E9002305
:1007900006F008FC06F0C0FE0690384606F0C2FFE0
:1007A0004FF07E5106F00CFF06F0A8FB02460B4608
:1007B0002046294605F090F919A3D3E9002306F055
:1007C000F1FB06F0A9FE07900DF1FF350DF10509CB
:1007D0000024DFF8608002ABE75815F8010F06F03F
:1007E000A1FF394606F0ECFE414606F0F3FF39461C
:1007F00007F0A4F8414606F0E5FE305104344D45BB
:10080000E9D109B0BDE8F08F000000A0A5A5054022
:10081000000000608FC29540000000806ABCF03F7D
:10082000000000000096A940000000000096A9C04A
:100830000000F0410000C8422DE9F041054688461D
:1008400016461F46114C2046294602F055F8204610
:10085000414601F0A7FE2046002102F05DF8204647
:100860002946324602F066F90024084D05E0E4B25C
:10087000284601F0C3FE38553446284601F0B4FE40
:10088000661C0028F3D1BDE8F08100BFAC95FF1FC6
:1008900010B582B0044668203B2106226B46FFF764
:1008A000CBFF9DF800209DF8013043EA022323800E
:1008B0009DF802209DF8033043EA022363809DF8EF
:1008C00004209DF8053043EA0223A38002B010BD46
:1008D000F0B589B0884B1B680293029B2BB9864BFD
:1008E0001B680393039B012B3AD9834B1B6804932A
:1008F000049B824A1360824A12689A4202D9804A53
:1009000013602DE09A1AF92A2AD97D4A13607D4C8A
:10091000204601F0A3FD606B03685B687A490722FB
:100920009847606B03685B68784901229847606B61
:10093000714B1B68059305990A22002303F05CFAAA
:10094000606B03685B68724908229847052002F0D3
:100950006BFB0A2002F068FB2046012101F0D0FD6C
:1009600068203A21FFF7DEFD10F0010F2ED0694C10
:100970002046FFF78DFFFFF795FD674B1E68B4F922
:10098000000006F0D3FE314606F024FF634D2968CF
:1009900006F016FE624B1860B4F9020006F0C6FEBF
:1009A0000146304606F016FF696806F009FE5D4B09
:1009B0001860B4F9040006F0B9FE0146304606F0AE
:1009C00009FFA96806F0FCFD574B18604A4B1B68ED
:1009D0000693069A554B1B68D31A022B40F2898066
:1009E000534C238801332380524F4F4B1868524990
:1009F00006F0F0FE3860514B1868514906F0E0FDF2
:100A00000146504800F0E4FC4F4D28604F4E304600
:100A1000B4F9001003F02CFA33685B6830464C4997
:100A200005229847386806F069FA02460B46022408
:100A30000094304603F028FA33685B683046454935
:100A400006229847286806F059FA02460B46009499
:100A5000304603F019FA304603F0BEF93E4E3046F8
:100A6000214600F0A9FF304601F054FA304600213B
:100A70000A4600F09DFF386806F040FA02460B4631
:100A80000094304603F000FA3046012100F094FF54
:100A900033685B683046314906229847304603F098
:100AA0009BF930460021102200F082FF304621469B
:100AB00000F082FF286806F021FA02460B460094F7
:100AC000304603F0E1F93046012100F075FF33684C
:100AD0005B683046224922469847304603F07CF94D
:100AE000304601F0B9FB044B1B680793079A0F4B84
:100AF0001A6009B0F0BD00BFC495FF1FAC94FF1F82
:100B00005C94FF1F1895FF1F548500005C85000052
:100B100060850000F494FF1FF094FF1F6894FF1F8E
:100B2000B094FF1FB494FF1FB894FF1F5494FF1F8D
:100B3000EC94FF1F5894FF1F00007A446094FF1F3D
:100B400000002041BC94FF1FA894FF1FBC96FF1F0C
:100B50006C850000748500008094FF1F7C85000078
:100B6000848500002DE9F04F87B000900191682046
:100B70006B218022FFF7BEFC642002F055FA68204A
:100B80006B210122FFF7B6FC68206C210022FFF7E1
:100B9000B1FCC82002F048FA682038210022FFF793
:100BA000A9FC682023210022FFF7A4FC68206B2108
:100BB0000022FFF79FFC682024210022FFF79AFC07
:100BC00068206A210022FFF795FC68206A210C2228
:100BD000FFF790FC0F2002F027FA68201A2101226B
:100BE000FFF788FC682019210022FFF783FC6820AA
:100BF0001B210022FFF77EFC68201C210022FFF74A
:100C000079FC68206A214022FFF774FC68202321C8
:100C10007822FFF76FFC502002F006FA68202321AB
:100C20000022FFF767FC68207221022203ABFFF766
:100C300003FE9DF80CB09DF80D3043EA0B2B634B7F
:100C4000A3FB0B2B5FEADB0B42D000242546274693
:100C50002646A246A146A046682074210C220DEB30
:100C60000203FFF7E9FD9DF80C209DF80D3043EAE3
:100C700002230AFA83FA9DF80E209DF80F3043EA0A
:100C8000022309FA83F99DF810209DF8113043EAF8
:100C9000022308FA83F89DF812209DF8133043EAE6
:100CA000022305FA83F59DF814209DF8153043EAD8
:100CB000022307FA83F79DF816209DF8173043EAC0
:100CC000022306FA83F60134A3B25B45C4D305E0E0
:100CD00000252F462E46AA46A946A8469AFBFBFAAF
:100CE00099FBFBF998FBFBF895FBFBF097FBFBF7F7
:100CF00096FBFBF6B8F1000FCCBFA8F5804808F5CD
:100D000080484342002BB8BF03339A109B128DF8E2
:100D10000C308DF80D207B42002BB8BF03339A10A6
:100D20009B128DF80E308DF80F207342002BB8BF48
:100D300003339A109B128DF810308DF8112006F0B5
:100D4000F5FC234906F0FAFD009B1860384606F0D2
:100D5000EDFC1F4906F0F2FD009A5060304606F0A7
:100D6000E5FC1B4906F0EAFD009B9860682006211F
:100D7000022203ABFFF760FD68200821022203ABCB
:100D8000FFF75AFD68200A21022203ABFFF754FD4A
:100D9000504606F0CBFC4FF0625106F01BFD019A65
:100DA0001060484606F0C2FC4FF0625106F012FD9A
:100DB000019B5860404606F0B9FC4FF0625106F0C6
:100DC00009FD019A906007B0BDE8F08FABAAAAAA0E
:100DD00000000343F0B583B02C4C20464FF4FA6179
:100DE00001F066FB20462A494FF4E13201F03CFB5A
:100DF000204601F033FB606B03685B6825491122D4
:100E000098470A2002F010F920460021012201F043
:100E1000A3FB214801F09AFC204C204602213C22F1
:100E2000012301F0E3F8204601F016FA4FF4FA60CE
:100E300002F0FAF8204601F06DF82046012100F09A
:100E4000BBFD2046012100F0BDFD204600210A46E1
:100E500000F0AEFD23685B682046114914229847D4
:100E6000204602F0B9FF204601F0F6F90D480321B3
:100E700000F0CAF9D0B9064C23685B6820460A49DD
:100E800036229847204602F0A7FFFEE71895FF1F7D
:100E9000BC96FF1F88850000AC95FF1F8094FF1F44
:100EA0009C850000BC94FF1FB4850000864C23681D
:100EB0005B68204685492922984723685B6820465D
:100EC000834911229847834800F024FA824E06F0A5
:100ED0002DFC3060814D2B685B68284680491022CC
:100EE0009847306806F00AF802460B46022700973A
:100EF000284602F0C9FF284602F06EFF284601F09E
:100F0000ABF9306805F0FAFF02460B460097204621
:100F100002F0BAFF23685B682046724903229847B3
:100F2000204602F059FF704C2078002101F09AFF12
:100F30002078002101F072FF68207521FFF7F2FA96
:100F400004464FF47A7002F06FF8682C40F0BA80D3
:100F50005D4C20466549FFF793FA28466449FFF740
:100F600081FA284601F078F9624D2846FFF74CFBDC
:100F700020466149FFF776FA286805F0BFFF024670
:100F80000B4601270097204602F07EFF5B4E20466D
:100F90003146FFF775FA20465949FFF763FA68684A
:100FA00005F0ACFF02460B460097204602F06CFFAE
:100FB00020463146FFF764FA20465249FFF752FABD
:100FC000A86805F09BFF02460B460097204602F0FA
:100FD0005BFF20463146FFF753FA20464A49FFF7A8
:100FE00041FAE86805F08AFF02460B460097204662
:100FF00002F04AFF20463146FFF742FA20464349B5
:10100000FFF730FA286905F079FF02460B46009792
:10101000204602F039FF20463146FFF731FA2046DC
:101020003B49FFF71FFA686905F068FF02460B4667
:101030000097204602F028FF20463146FFF720FAAD
:1010400028684FF07E5106F063FD60B368684FF08A
:101050007E5106F05DFD30B3A8684FF07E5106F07A
:1010600057FD00B3E8684FF07E5106F051FDD0B156
:1010700028694FF07E5106F04BFDA0B168694FF032
:101080007E5106F045FD70B14FF47A7001F0CCFF4F
:1010900020482149FFF766FDFFF760FA20461F4907
:1010A000FFF7EEF90EE0084C20461D49FFF7DAF98C
:1010B000204668211022002302F09EFE204602F006
:1010C0008BFEFEE703B0F0BDBC96FF1FEC85000071
:1010D00018860000BC94FF1F6094FF1F8094FF1FC0
:1010E0002C860000408600003C88FF1F44860000DC
:1010F0005C860000D494FF1F6C8600009C86000074
:10110000B0860000E0860000108700003C870000E9
:10111000688700007494FF1F6894FF1F9487000085
:10112000B8870000704700BFC38AC91A828A02FBD1
:1011300001F3DB13B0F90E10C902B0F910201A4404
:1011400091FBF2F01844704770B50E461546084CF6
:101150002046772101F0FCFC2046314601F022FABE
:101160002046294601F01EFA204601F0F7FC70BD2A
:10117000AC95FF1F38B50D460E4C2046772101F087
:10118000E7FC2046294601F00DFA204601F0E6FC76
:101190002046772101F0DCFC20467721012201F076
:1011A000CFFC204601F02AFA0546204601F0D6FC85
:1011B000E8B238BDAC95FF1F38B50D46114C20463E
:1011C000772101F0C5FC2046294601F0EBF92046C5
:1011D00001F0C4FC2046772101F0BAFC20467721BB
:1011E000022201F0ADFC204601F008FA85B220464B
:1011F00001F004FA2D02ADB20543204601F0AEFC29
:10120000A8B238BDAC95FF1F10B50446032928BF0E
:1012100003210170214801F099FA2046D021FFF7FF
:10122000A9FF552838D12046AA21FFF7C5FF6080C5
:101230002046AC21FFF7C0FFA0802046AE21FFF77B
:10124000BBFFE0802046B021FFF7B6FF608220465A
:10125000B221FFF7B1FFA0822046B421FFF7ACFF17
:10126000E0822046B621FFF7A7FF20812046B82163
:10127000FFF7A2FF60812046BA21FFF79DFFA08102
:101280002046BC21FFF798FFE0812046BE21FFF7F2
:1012900093FF2082012010BD002010BDAC95FF1FE0
:1012A00010B50446F4212E22FFF74EFF052001F071
:1012B000BBFE2046F621FFF77FFF10BD38B5044680
:1012C000027892013432F42102F0FC02FFF73CFF75
:1012D00023781BB9052001F0A7FE0BE0012B03D1F9
:1012E000082001F0A1FE05E0022B0CBF0E201A2001
:1012F00001F09AFE2046F621FFF75EFF0502204628
:10130000F821FFF737FF28432378C3F10803D840BB
:1013100038BD00BFF8B50446FFF7C2FF05462046BA
:10132000FFF7CCFF064620462946FFF7FDFEA0F555
:101330007A6303FB03F52D132278B4F9067003FBDF
:1013400007F7B4F9081001FB05F1091401EB673741
:101350000237BF1007F50047618A01FB07F7FF0B53
:10136000B4F90210B4F90A0005FB00F5B4F9040061
:1013700003FB00F3DB1203EBE52505EB8101914054
:10138000023148BF0331A6EBA1014CF2503020FAE4
:1013900002F202FB01F2002AA7BF5300B3FBF7F3EE
:1013A000B2FBF7F35B001A1202FB02F240F6DE30EA
:1013B00000FB02F0054901FB03F1091401EB204099
:1013C00000F6CF6003EB2010F8BD00BF43E3FFFF42
:1013D00010B50C46FFF79EFF06F0A8F9214606F06F
:1013E000ADFA05F08BFD0AA3D3E9002304F074FBEA
:1013F00002460B4600200A4905F020FC06A3D3E96B
:10140000002305F0CFFD06F087F810BDAFF3008094
:1014100000000020C05BC83F0000000040A5E54080
:101420000000F03FAFF300802DE9F04F83B0074696
:101430000C4616469846BDF93030BDF834B0C2EBC4
:101440000309B9F1000FB8BFC9F10009C1EB0802E7
:10145000002AB8BF52429145D4BF4FF000094FF067
:101460000109B9F1000F04D04246984613463446AC
:101470000E46444505DD32461E4613462246444686
:101480009046C4EB080292B20092C6EB030ABAF18E
:10149000000FB8BFCAF1000A15B205EBD575C5F348
:1014A0004F054FF6FF729E42B8BF0122019244459C
:1014B00024DCB9F1000F08D03B68D3F808C03846E7
:1014C000314622465B46E04707E03B68D3F808C058
:1014D0003846214632465B46E047CAEB0505ABB2CB
:1014E0009DB215F4004F05D0019A164436B2009D06
:1014F0001D44ADB2013424B2A045DADA03B0BDE830
:10150000F08F00BF2DE9F04782B00446894690462F
:101510009A46BDF92860BDF82C50076800957F6990
:10152000B8472368721E424400955F6920464946C9
:1015300012B25346B847236800951F6920464946B2
:1015400042463346B84723680AF1FF3A0AEB0901DD
:1015500000951D69204609B242463346A84702B0AD
:10156000BDE8F08710B582B00468013B13441BB29C
:101570000093BDF810300193E4680B46A04702B019
:1015800010BD00BF30B583B00468013B0B4400922E
:10159000BDF818500195E4681BB2A04703B030BDF8
:1015A0002DE9F04782B005460C469246BDF92890D9
:1015B000BDF82C80CF18B9420CDA2968CDF800802C
:1015C0000E692846214652464B46B047013424B2A4
:1015D000BC42F2DB02B0BDE8F08700BF10B582B0BC
:1015E0000468B0F90A30B0F90C2000920191E46966
:1015F00000210A46A04702B010BD00BF704700BFDF
:1016000030B4002404710A4D0560C180028141811B
:101610008281C475C4810482012282754FF6FF71F4
:101620008182418202764476C46130BC704700BF3B
:10163000F08C00002DE9F04F91B082468946BDF84C
:1016400068400694BDF86CB09DF870400494C16980
:10165000002940F08A80B0F90A10494540F3218101
:10166000B0F90C10914240F31C8104EB440109EBEA
:101670004101012900F1158102EBC401012900F1AA
:101680001081417E19B9AF2B84BF0133DBB203EB6C
:1016900083030624089400240594834919440B917C
:1016A000DDF8108092B2079202F108039CB2CDF8E7
:1016B0002890CDF80CB0C146A346059C63B2042B1C
:1016C00000F3DE800B9CE55CDBE015F0010F1AD027
:1016D000B9F1010F09D1DAF80030D3F808C050464B
:1016E000099922B2069BE0472BE0DAF800200FFAB6
:1016F00089F3009306980190D2F81CC050460499D3
:1017000032B2E0471DE00399069A914219D0B9F12F
:10171000010F09D1DAF80030D3F808C05046099912
:1017200022B2039BE0470CE0DAF800200FFA89F3BD
:10173000009303980190D2F81CC0504604993AB225
:10174000E0476D084644B6B24744BFB20134A4B284
:101750005C45BAD1059C631CDBB20593089C631EF3
:1017600013F0FF030893A8D19BE0087A1B1ADCB2A0
:10177000486800EBC4030968039130F8347093F8AB
:101780000280DC7809945C790F949B79049C012C8D
:1017900006D90F9C61B289B258B280B20B9002E0B8
:1017A00000240B942146099C002C7AD0DDF810B05F
:1017B0001FFA89F9CDF8389001FB0B9189B20C9191
:1017C00000240594A146254692B20A9242FA83F378
:1017D0000D9343E009EB040313F0070F03D17B1CC7
:1017E0000398C55D9FB215F0800F25D0049901299B
:1017F00010D1DAF800300F9ADDF838E04EFA82F1B5
:101800002144D3F808C0504609B2089B1AB2069B7F
:10181000E04711E0DAF80020DDF810E00FFA8EF36F
:10182000009306980190D2F81CC0504631B2DDF802
:101830001CE00FFA8EF2E0476D00EDB201345E4419
:10184000B6B2E3B24345C5D3C1445FFA89F9059CFA
:10185000631CDBB20593099C9C4222D9B8F1000FAE
:10186000F5D00B9C059800FA84F30A9C03FB0B430C
:101870009BB207930C9E00240D9908440890A9E799
:101880000025059C62B292B20A9CA3B209FB023108
:10189000079E3446374609B2049113441BB209939C
:1018A00013E711B0BDE8F08FE4870000F0B585B014
:1018B00004460B46C269002A33D10A2907D1827D2A
:1018C000038A03EBC20303820023C3816DE00D2969
:1018D0006BD0027E82B1827DB0F90E1002EB420025
:1018E00001EB4000B4F90A10884205DB0021E181D8
:1018F000218A01EBC2022282B4F90E10B4F9102041
:10190000608A0090A08A0190A07D02902046FFF797
:1019100091FEA37D03EB4303E28902EB4303E381E2
:1019200043E00A2908D10023C381917A837D028A8A
:1019300001FB0323038238E00D2936D0117A8B4254
:1019400033D3507A984230D35D1AEDB2506800EB31
:10195000C505A978E87811B308B36E79207E88B1FF
:10196000A07DB4F90E7041FA86F101FB0071B4F963
:101970000A70B94206DB0021E181917A228A01FBDB
:1019800000202082B4F90E10B4F91020608A009073
:10199000A08A0190A07D02902046FFF74BFE297996
:1019A000A37DE28901FB0323E381012005B0F0BDA3
:1019B000C1810282704700BF002908BF01218175E3
:1019C000704700BF81824182704700BFC07D704771
:1019D000B0F90A00704700BFB0F90C00704700BFB3
:1019E00070B4BDF80C50C47D022C09D0032C10D06B
:1019F000012C40F0A380C488013CA21A12B2EEE090
:101A00000489013CA21A12B2C488E41A611A09B20C
:101A100094E00489E41A611A09B2E0E0B0F90640E2
:101A2000944240F3DF80002902DA0B441BB200210C
:101A30000089CE1804B2A642C4BFC1EB00031BB29A
:101A4000002B40F3CF80C9B2DBB2CC08664800EB74
:101A5000C410024411F0070123D0C1F10801C9B23A
:101A60006248405C8B4204D2CC1AFF2646FA04F44A
:101A70002040012D03D035B1022D09D00BE01478A0
:101A80002043107007E0147824EA0000107002E090
:101A90001478604010708B42C0F0A4805B1ADBB2F7
:101AA0008032072B31D9022D17D102F18001A3F129
:101AB0000806C6F3C40602F5807404EBC61411F8D8
:101AC000800CC04301F8800C8031A142F7D101366F
:101AD00002EBC61203F0070317E0012D0CBFFF2431
:101AE000002402F18001A3F10806C6F3C40602F542
:101AF000807000EBC61001F8804C80318142FAD131
:101B0000013602EBC61203F00703002B6AD003F084
:101B100007033749CB5C012D03D035B1022D09D025
:101B200060E011780B4313705CE0117821EA030345
:101B3000137057E011784B40137053E0002A51DBCB
:101B4000B0F9084094424DDD002902DA0B441BB283
:101B50000021C088CE1804B2A642C4BFC1EB000366
:101B60001BB2002B3EDD1046002AB8BFD01D40F34B
:101B7000CF001D4C04EBC010014402F0070201200D
:101B800000FA02F2D2B2854207D095B1022D29D1D6
:101B9000581E80B20130084419E0581E80B201304E
:101BA000084411F8013B134301F8013C8142F8D18C
:101BB00018E0D243D2B2581E80B20130084411F866
:101BC000013B134001F8013C8142F8D10AE011F8D1
:101BD000013B534001F8013C8142F8D102E0002A68
:101BE000BFF61CAF70BC70475088FF1F4888FF1FAE
:101BF0004088FF1F70B4BDF80C50C47D022C08D083
:101C0000032C0FD0012C64D1C488E41AA21A12B29A
:101C1000EFE0C488013C611A09B20489E41AA21AEF
:101C200012B256E00489013C611A09B2E1E0B0F950
:101C300008408C4240F3E080002A02DA13441BB2D1
:101C40000022C088D61804B2A642C4BFC2EB00036B
:101C50001BB2002B40F3D08008460029B8BFC81D36
:101C600040F3CF00654C04EBC010024401F00701C3
:101C7000012000FA01F1C9B2854208D09DB1022DC0
:101C800040F0BA80581E80B20130104419E0581E4E
:101C900080B20130104412F8013B0B4302F8013CC2
:101CA0008242F8D1A8E0C943C9B2581E80B20130BF
:101CB000104412F8013B0B4002F8013C8242F8D17B
:101CC0009AE012F8013B4B4002F8013C8242F8D105
:101CD00092E00029C0F29080B0F906408C4240F3B7
:101CE0008B80002A02DA13441BB200220089D61826
:101CF00004B2A642C4BFC2EB00031BB2002B7BDDC3
:101D0000D2B2DBB2D4083D4800EBC410014412F05B
:101D1000070222D0C2F10802D2B23948805C934255
:101D200004D2D41AFF2646FA04F42040012D03D031
:101D300035B1022D09D00BE00C782043087007E084
:101D40000C7824EA0000087002E00C78604008700B
:101D5000934251D39B1ADBB28031072B31D9022D2C
:101D600017D101F18002A3F10806C6F3C40601F5FC
:101D7000807404EBC61412F8800CC04302F8800C87
:101D80008032A242F7D1013601EBC61103F00703FE
:101D900017E0012D0CBFFF24002401F18002A3F104
:101DA0000806C6F3C40601F5807000EBC61002F801
:101DB000804C80328242FAD1013601EBC61103F029
:101DC0000703CBB103F007030E4AD35C012D03D008
:101DD00035B1022D09D00FE00A7813430B700BE0E8
:101DE0000A7822EA03030B7006E00A7853400B706E
:101DF00002E00029BFF61BAF70BC70475088FF1F80
:101E00004888FF1F4088FF1FF8B5054614461F4647
:101E10000E1E63DBFFF7DCFD86425FDA002C5DDB24
:101E20002846FFF7D9FD844258DA2846FFF7CEFD51
:101E3000022809D0032810D0012813D1EB88013BD8
:101E40001B1B34461EB20DE0EB88013B9E1B36B2D5
:101E50002B89013B1C1B24B204E02B89013B9B1BFB
:101E600026461CB2012F03D0A7B1022F25D0F8BD02
:101E70002346002CB8BFE31D43F3CF0306EBC31684
:101E8000174B04F00704012202FA04F49A5D14438C
:101E90009C55F8BD2346002CB8BFE31D43F3CF0388
:101EA00006EBC3160E4B04F00704012202FA04F4F9
:101EB0009A5D22EA04049C55F8BD2346002CB8BF65
:101EC000E31D43F3CF0306EBC316054B04F00704F1
:101ED000012202FA04F49A5D54409C55F8BD00BFFB
:101EE0005088FF1F38B504460D4680212022FFF799
:101EF00087FB074B2360FF2384F8223084F82630C9
:101F000084F8243084F8233084F82550204638BDE6
:101F1000208D000008B5034800214FF4007206F040
:101F2000F1F808BD5088FF1F2DE9F84304468946A3
:101F300090F92230B3F1FF3F40D090F82600012104
:101F400000F06CFF94F82400002100F067FF94F883
:101F50002600002100F062FF94F8273063B1214B86
:101F60004FF00042DA62C3F834901A46D36A002B6D
:101F7000FCDA1C4B9B6B1AE0082680254FF000080A
:101F8000012794F82300414600F048FF15EA090FA5
:101F900094F8220014BF3946414600F03FFF94F800
:101FA0002300394600F03AFF6D08013EE9D194F86C
:101FB0002600012100F032FFBDE8F8830A4D2846D3
:101FC00094F9201000F0C4FD2846002100F0EAFA40
:101FD0002846494600F0E6FA284600F0BFFDBDE875
:101FE000F88300BF00C00240AC95FF1F70B50446E7
:101FF0000D461E4684F8211080F8202090F92230EA
:10200000B3F1FF3F59D090F82400012100F02AFFDE
:1020100094F82600012100F025FF94F827306BB9D1
:1020200094F82200012100F01DFF94F82300012103
:1020300000F018FF94F82730002B41D000F0A2F9EF
:102040007A4B1B78002B28D072B6784B1B7813F094
:10205000010F07D0764B1968764A12680A40764914
:102060000A601A60714B1B7813F0020F07D0734B94
:102070001968704A52680A406F494A601A606B4B8F
:102080001B7813F0040F07D06D4B1968694A9268EA
:102090000A4069498A601A6062B66A4BDA686A4B1C
:1020A0009A420DD0674B694A1A60674ADA6002F1BA
:1020B00080421A61664A1A6002E0664800F046FBF8
:1020C000E6B194F8250010F0800F17D1012100F03F
:1020D000C9FE94F82500012100F0A0FE012000F0C7
:1020E000A3FF94F82500002100F098FE0A2000F0DC
:1020F0009BFF94F82500012100F090FE2046AE21C0
:10210000FFF712FF2046D521FFF70EFF2046802162
:10211000FFF70AFF2046A821FFF706FF20461F21F0
:10212000FFF702FF2046D321FFF7FEFE20460021E5
:10213000FFF7FAFE20464021FFF7F6FE20468D21EC
:10214000FFF7F2FE012D2CD120461021FFF7ECFE07
:1021500020462021FFF7E8FE20460021FFF7E4FE9D
:102160002046A121FFF7E0FE2046C821FFF7DCFE54
:102170002046DA21FFF7D8FE20460221FFF7D4FEE1
:1021800020468121FFF7D0FE20468F21FFF7CCFEAD
:102190002046D921FFF7C8FE20462221FFF7C4FEC2
:1021A0002BE020461421FFF7BFFE20462021FFF739
:1021B000BBFE20460021FFF7B7FE2046A121FFF716
:1021C000B3FE2046C821FFF7AFFE2046DA21FFF715
:1021D000ABFE20460221FFF7A7FE20468121FFF734
:1021E000A3FE20468F21FFF79FFE2046D921FFF74F
:1021F0009BFE2046F121FFF797FE2046DB21FFF7EB
:1022000093FE20464021FFF78FFE2046A421FFF7D2
:102210008BFE2046A621FFF787FE20462E21FFF7E2
:1022200083FE2046AF21FFF77FFE70BD1495FF1F90
:1022300080E100E0FC94FF1F0895FF1F84E100E0AF
:1022400088E100E000C002400000013801401F00AA
:1022500000001F80AC95FF1F2DE9F84F0446212197
:10226000FFF762FE20460021FFF75EFE20467F2139
:10227000FFF75AFE20462221FFF756FE2046002196
:10228000FFF752FE20460321FFF74EFE94F922305D
:10229000B3F1FF3F4AD094F82600012100F0BEFDC3
:1022A00094F82400012100F0B9FD94F826000021E3
:1022B00000F0B4FD2F4B03F1FF3BDFF8C4901BF897
:1022C00001AF94F8273063B14FF00043C9F82C30C8
:1022D000C9F834A0D9F82C30002BFBDAD9F8383003
:1022E0001AE0082680254FF00008012794F8230003
:1022F000414600F093FD15EA0A0F94F8220014BF3E
:102300003946414600F08AFD94F82300394600F032
:1023100085FD6D08013EE9D1174B9B45CFD194F85F
:102320002600012100F07AFDBDE8F88F0025134E4C
:10233000DFF84080304694F9201000F009FC336843
:102340001B6830464021984705F11007BFB2304660
:1023500018F8051000F026F90135ADB2BD42F6D1EE
:10236000304600F0FBFBB7F5007F01D03D46E1E7CA
:10237000BDE8F88F5088FF1F4F8AFF1FAC95FF1FE5
:1023800000C00240184B1A6842F480521A60174B82
:10239000174A1A60174ADA6002F180421A61164A37
:1023A0001A60164B1B7813F0010F07BF4FF4107221
:1023B000134B4FF40072134B1A60104B1B7813F041
:1023C000020F4FF400720CBF0F4B104B1A600B4BF7
:1023D0001B7813F0040F07BF4FF410720C4B4FF42F
:1023E00000720C4B1A6070473C80044000C00240F1
:1023F00001401F000110003800001F80B996FF1F28
:1024000018B0044008C004401CB004400CC0044094
:1024100014B0044004C0044070B582B0044699B9B9
:102420000D4B1B680093009A4368D31A312B0BD8CD
:102430000326094D304600F0F7FD2B680093009A03
:102440006368D31A312BF5D9034B1B680193019BA9
:10245000636002B070BD00BFC495FF1F08B50021C6
:10246000FFF7DAFF08BD00BFF8B541631B240C4D30
:102470000C4E0D4F02E0C82000F0D6FD2B7813F073
:10248000FF0F09D0337813F0030F05D03A68074BDC
:102490001B68D31A182B01D8013CECD1F8BD00BF42
:1024A000A896FF1FB896FF1FC495FF1FD498FF1F63
:1024B00008B5002383634360084609B100F0B4FD0A
:1024C00008BD00BF38B504460D46406B03685B6825
:1024D000094906229847606B29460A22002301F029
:1024E0008BFC606B03685B680449082298473220C4
:1024F00000F09AFD38BD00BF488D0000508D0000EF
:1025000070B504460D46037A23B3606B03689B687D
:1025100098470028F9D0002614E0606B0368DB6858
:102520009847C3B2632B06D0762B02D0582B09D123
:1025300007E0C0B270BD20462946FFF7C3FF632005
:1025400070BD2672606B03689B6898470028E4DCC6
:10255000632070BD632070BD38B50446154621B1B7
:10256000012303720021FFF7CBFF257238BD00BFA6
:10257000044BD878C0B2044B1B6898421CBF024B76
:102580001860704700600640548AFF1F08B5FFF7C7
:10259000EFFF10F0020FFAD00222014BDA7008BDF3
:1025A000006006400B4B1B7813B90B4B1B7873B1C3
:1025B0000A4B1B78202B03D901230371002070479D
:1025C000581C064A1070064AD1540120704700205A
:1025D000704700BFBE95FF1F8095FF1FBF95FF1F6F
:1025E0005C95FF1F704700BF024B1878024B1B78A9
:1025F000C01A7047BD95FF1FBC95FF1F074B1B7886
:10260000074A12789A4205D9591C044A1170054AA2
:10261000D05C70474FF0FF30704700BFBC95FF1F84
:10262000BD95FF1F8495FF1F054B1B78054A127847
:102630009A4286BF044AD05C4FF0FF30704700BF1B
:10264000BC95FF1FBD95FF1F8495FF1F08B5104B5C
:10265000DB7813F0200F0CD1122000F085FB0D4B1E
:102660001B689BB100210C4A11700C4A10789847E6
:1026700008BD0B4A13780133DBB21370012B02D86B
:10268000084B1B7813B9122000F06EFB08BD00BF89
:10269000006006405895FF1FBC95FF1FBD95FF1FAA
:1026A000A895FF1F8095FF1F38B514460D4B1B786A
:1026B00013B90D4B1B7893B10C4B1D78C5F1210359
:1026C000A34202D2012202711C4609482844224634
:1026D00000F052FA2544054B1D70204638BD0020FD
:1026E00038BD00BFBE95FF1F8095FF1FBF95FF1F20
:1026F0005C95FF1F002202714FF47A7181600273B2
:10270000014A0260704700BFB08D00000B4B1B6890
:1027100013F0400F10D00A4B994203D82722094BDF
:102720005A7006E0084B994294BF1A220D22054BBD
:102730005A700422034B9A71704700BF34800440E2
:102740007F1A0600006006403F420F0008B50023D4
:10275000174A1370174A116841F040011160164A78
:102760009370164B1B78122B04D14FF41972144B33
:102770001A6005E0112B03D14FF41972114B1A6046
:10278000114B1B78132B04D14FF419720F4B1A60A5
:1027900005E0102B03D14FF419720D4B1A600D494F
:1027A000FFF7B4FF044B20225A7180229A7008BDB3
:1027B0008095FF1F3480044000600640508AFF1F50
:1027C0000CA0044004A00440588AFF1F08A0044045
:1027D00000A00440A086010008B53D4BDB78DBB2C9
:1027E00013F0100F06D01021394AD17013F0400FAA
:1027F00003D108BD13F0400F2CD013F0040F1BD0F1
:102800000023344A1370344A1370344B1B681BB1D5
:102810009847314B1B782BB901222F4B1A7000229D
:102820002F4B1A702A4BD0229A702D4A12781A71A7
:1028300001222C4B1A7009E00122264B1A7000224B
:10284000294B1A70224BC0229A701B790222204B0E
:10285000DA7008BD1E4A927812F0100F1CD013F0E7
:10286000010F14D11F4B1B781B4A12789A4207D9CB
:10287000591C1C4A11701A4AD25C154B1A7102E09D
:102880000022134B1A71D022114B9A701BE0104B8F
:10289000C0229A701B7916E00022144B1A70122085
:1028A0001349032200F01EFB094B1B79DAB20E4BD1
:1028B0001B781F2B07D80749097821B1581C0A49F2
:1028C00008700C49CA540222014BDA7008BD00BFDF
:1028D000006006405495FF1FBF95FF1FA495FF1F82
:1028E0005C95FF1FC095FF1FBD95FF1FA895FF1F9B
:1028F0004D2600008495FF1F4900044B19700123E9
:10290000034A1370034A1370704700BF5C95FF1FA2
:10291000BE95FF1FBF95FF1F2DE9F04182B088468D
:10292000374B1222DA709B7813F0200F03D0B422B9
:10293000334B9A701DE0334B1B680093009D314C64
:102940000CE023680193019B5B1B0F2B06D92C4BDA
:1029500000229A7080229A7004204EE0FFF708FE51
:1029600010F0200FEDD10022274B1A70B022244B1B
:102970009A70FFF7FDFD10F0200FFAD0234B1B7863
:102980007BB30024224E1E4D204F335D2B71FFF789
:10299000EFFD10F0020F02D110F0200FF7D102234B
:1029A000EB70FFF7E5FD10F0100F04D08022144B00
:1029B0009A70042018E010F0200F04D18022104BF0
:1029C0009A70042010E010F0010F04D0002C0CBF0E
:1029D000022003200BE00134E4B23B78A342D4D8B8
:1029E00001E0002000E00020B8F1000F02D08022BA
:1029F000034B9A700022074B1A7002B0BDE8F081B9
:102A000000600640C495FF1F8095FF1FBF95FF1F04
:102A10005C95FF1FBE95FF1F2DE9F8430D46144638
:102A2000984600233E4A13703E4A13703E4B1222D2
:102A3000DA709B7813F0200F03D0B4223A4B9A70CF
:102A40000AE0FFF795FD10F0200FFAD10022374B76
:102A50001A70B022344B9A706D0045F00105EDB24A
:102A6000314B1D71FFF792FDFFF782FD10F0110051
:102A700005D080222C4B9A700020BDE8F88344B921
:102A8000B8F1000F0CBFA0228022274B9A70BDE83E
:102A9000F883012C04D1244BA8229A701B7938E0CA
:102AA000214BA0229A701B79012C32D900251E4E91
:102AB0004FF0A8091E4FFFF769FD013CE4B2012C5D
:102AC00008BF86F802901F2D04D86A1C33797B5505
:102AD000D5B200E03379012CEDD1FFF757FDB022DC
:102AE000114B9A701F2D07D82B465D1CEDB20E4A74
:102AF00011790F4AD15401E00B4B1B79B8F1000F4B
:102B000002D08022084B9A70064B1D702846BDE803
:102B1000F883FFF73BFDB022034B9A700023E4E7F4
:102B2000BC95FF1FBD95FF1F006006408095FF1FED
:102B30008495FF1F08B50123FFF76EFF08BD00BF96
:102B400008B5C9B2D2B20123FFF766FF08BD00BFC6
:102B500008B5C9B2FFF7D0FE08BD00BF08B5012116
:102B6000FFF7DAFE08BD00BF08B50248FFF7C2FD57
:102B700008BD00BFAC95FF1F844641EA000313F077
:102B800003036DD1403A41D351F8043B40F8043B74
:102B900051F8043B40F8043B51F8043B40F8043B37
:102BA00051F8043B40F8043B51F8043B40F8043B27
:102BB00051F8043B40F8043B51F8043B40F8043B17
:102BC00051F8043B40F8043B51F8043B40F8043B07
:102BD00051F8043B40F8043B51F8043B40F8043BF7
:102BE00051F8043B40F8043B51F8043B40F8043BE7
:102BF00051F8043B40F8043B51F8043B40F8043BD7
:102C000051F8043B40F8043B403ABDD2303211D376
:102C100051F8043B40F8043B51F8043B40F8043BB6
:102C200051F8043B40F8043B51F8043B40F8043BA6
:102C3000103AEDD20C3205D351F8043B40F8043B76
:102C4000043AF9D2043208D0D2071CBF11F8013B74
:102C500000F8013B01D30B8803806046704700BF3A
:102C6000082A13D38B078DD010F003038AD0C3F149
:102C70000403D21ADB071CBF11F8013B00F8013B2B
:102C800080D331F8023B20F8023B7BE7043AD9D3EA
:102C9000013A11F8013B00F8013BF9D20B780370BF
:102CA0004B7843708B78837060467047024B1A688C
:102CB00001321A60704700BFC495FF1F08B50D4C64
:102CC000236813F4802F01D000F004FB236813F471
:102CD000806F01D001F0CAFD236813F4006F01D0AA
:102CE00002F076F9236813F4805FE9D002F02EFC3D
:102CF000E6E700BF3480044008B5FFF7DFFF00BF00
:102D00001022014B1A80704700200540704700BF19
:102D1000024A136818441060184670475C8AFF1F07
:102D2000FEE700BFEFF31383ABB9EFF31083ABB94A
:102D3000EFF3058323B10F2B05D9094A985C03E013
:102D40004FF4807000E00020EFF311833BB1834229
:102D500038BF184670474FF0FF307047002070476B
:102D6000F0E300E0704700BF1D4B03EBC000436879
:102D700003F14042A2F592227C2A18D903F1404285
:102D8000A2F594227C2A14D903F14042A2F596229E
:102D90007C2A10D903F14042A2F598227C2A0CD952
:102DA00003F14042A2F59A227C2A08D970470D49C6
:102DB00006E00D4904E00D4902E00D4900E00D492F
:102DC00072B61A6822F0877222F4803242F0807262
:102DD0001A60C3F38403084A41F8232062B670479F
:102DE000C88D0000608AFF1F988AFF1FE88AFF1FB6
:102DF000188BFF1F388BFF1F652D0000044B00222E
:102E00001A6004490A60044A106010221A60704770
:102E100014D0034004D0034000D0034021281ED822
:102E20000F4B53F8303093F8802212F0FF0F08D088
:102E300019B1012283F880207047012283F8002114
:102E40007047074B03EBC000436821B11A6842F09A
:102E500003021A6070471A6822F002021A60704773
:102E6000C88D000021283AD81D4B03EBC0035B68D6
:102E7000012919D0042925D0194A52F83020002000
:102E800082F8800219B94FF480721A6070470229E3
:102E900003D140F203121A60704703290CBF4FF4AC
:102EA000817200221A6070470D4A52F830200121C9
:102EB00082F880124FF4A2721A601A6822F020027F
:102EC0001A607047064A52F83020012182F88012B9
:102ED0004FF4A2721A601A6842F020021A6070471A
:102EE000C88D000070B50D46212861D8042A5FD82E
:102EF000DFE802F00709050B03000B2306E00A23B5
:102F000004E0082302E00C2300E009231E04294BFF
:102F100003EBC0035C68236813F4E06F02D1002167
:102F2000FFF7A0FF244B254AC3F89C21244AC3F88D
:102F3000A021244AC3F8A421234AC3F8A821234A84
:102F4000C3F8AC2104F14043A3F592237C2B18D99C
:102F500004F14042A2F594227C2A14D904F14043A2
:102F6000A3F596237C2B10D904F14043A3F59823B5
:102F70007C2B0CD904F14043A3F59A237C2B08D970
:102F800070BD134906E0134904E0134902E01349F8
:102F900000E0134972B6236823F470232360C4F35E
:102FA000840241F8225043F080731E43266062B6CB
:102FB00070BD00BFC88D00000082FF1F1188FF1F79
:102FC000E587FF1FB987FF1F8D87FF1F6187FF1FE1
:102FD000608AFF1F988AFF1FE88AFF1F188BFF1F58
:102FE000388BFF1F72B60C4B1B680C4A12680C49D9
:102FF000096862B611F0806F02D0322B88BF0132AF
:10300000C3F5BB33FF330749A1FB03039B094FF40F
:103010007A7000FB0230704718E000E0C495FF1F93
:1030200004ED00E0ABAAAAAA38B50546FFF7DAFF1F
:10303000044625B938BD013D0AD004F57A74FFF77E
:10304000D1FF001BB0F57A7FF5D201F03DF8F6E72D
:1030500038BD00BF10B5264B4FF400021A604FF088
:1030600080721A604FF000721A604FF080621A602E
:103070004FF000621A6000201E4B18604BF6FF7183
:103080000433196028231C4A136008321360083285
:10309000136008321360083213600832136008327C
:1030A0001360083213600922144C226004F5805426
:1030B0000434206004342160043423600834236025
:1030C000143C226004F5FE24043420600C480160A6
:1030D0000C490B6008310B600B4B1A6001F016F8BD
:1030E0004FF4C870FFF7A0FF00F074FC10BD00BFE4
:1030F00008E100E0048003400C80034000800340AE
:1031000008800B400C800B4000800B4030B40E4B0D
:103110001B7843F002020D4C04EBC20460600C48C3
:10312000007800280CBF8824C82444EA0141074DD8
:1031300045F8321080F00100054A107083F0010359
:10314000014A137030BC70473096FF1F0080FF1F8C
:10315000A996FF1F10B4431E032B11D872B60A4A5A
:1031600052F8230050B14268074941F82320074A2A
:1031700032F813400188611A22F8131062B600E099
:1031800000205DF8044B70472096FF1FC498FF1F76
:10319000013803280DD872B6074B53F820302BB1F5
:1031A000002001305B68002BFBD100E0002062B6FC
:1031B00070470020704700BF7496FF1F38B572B685
:1031C00001231B491B4C5A1812F8012C12F0080F4E
:1031D00024D09A0054F832506DB9164B03EBC2015B
:1031E00008304860144943F83210144B1A78013AF9
:1031F0001A7062B638BD42F0010254F832506DB90F
:103200000C4B03EBC201083048600D4943F8321003
:103210000A4B1A78013A1A7062B638BD0133052B91
:10322000D1D162B60022054B1A7000F037FC38BDD0
:10323000108F00000080FF1F880040009E96FF1F37
:10324000C800400010B4431E032B37D8400140F0A3
:1032500010001C4A104472B61B4AD25C032A09D8DB
:10326000DFE802F019021B050830022216E00830E0
:10327000042213E0154A52F823201AB9134A42F8DF
:10328000231003E0124A52F823205160104A42F8FA
:10329000231062B612E0032200E005220A4CE25439
:1032A00001F10803436000F00803002B0CBF8823E2
:1032B000C8230A8843EA0243036062B65DF8044B00
:1032C000704700BF0080FF1FDC95FF1F7496FF1F33
:1032D0008496FF1F2DE9F84FA34CDFF8E092DFF84A
:1032E000E0A2DFF8E0B22578EDB215F0040F1DD0B2
:1032F0009E4B1B7813F0FF0F16D09D4B1B7803F0ED
:10330000FF022BB1531EDBB2994A137003B900BE02
:10331000984B1B7803F0FF0233B1531EDBB2954A82
:1033200013700BB900F018FD0423237015F0080F7B
:1033300000F0E48299F80030DBB21D0940F02182F0
:103340008D4D9E0805EBC6035A6855F83630C3F319
:103350008303013B0C2B00F21082DFE813F0CB015A
:10336000CB010E020E020E020E020E020E02E80148
:103370000E020E020E020D00804913680B605268A7
:103380004A607F4A45F8362000227E490A607A4921
:103390000A618A6101217C4A11709BB240F281620C
:1033A000934218D8B3F5D06F2ED2B3F5817F00F0D9
:1033B0001E8106D8802B00F0C980822B00F0CC80C3
:1033C00066E140F20232934200F02681B3F5A06F2D
:1033D00000F062815CE142F22102934200F08681BA
:1033E00007D8B3F5086F00F0AB80B3F5106F11D0BC
:1033F0004EE142F22122934200F0418142F2213219
:10340000934200F0498143E1604B5D68002D40F03C
:10341000188130E1594B9A78544B1A70564D05F18A
:1034200080062B6A13F0800F03D0686A083800F01A
:1034300035FB0835B542F4D1DFF88C8100263746DC
:10344000534AB05828B1456800F028FB0DB1284612
:10345000F9E700234E4973504E4AB3504E4BF05893
:1034600028B1456800F01AFB0DB12846F9E70023A2
:1034700049497350494AB35028F8023F484BFB5C16
:10348000023B032B0AD8DFE803F002060206002203
:10349000434BDA5502E00122414BDA55013704363D
:1034A000102ECDD100223F4B1A7001253E4EDFF881
:1034B0001C81314F05EB080313F8013C06F8043B6F
:1034C00013F0080F2DD000F0C9FA48B1A90007EB9E
:1034D000451200F108035360344A47F8312007E0F1
:1034E000AB00002247F833202E4B1A7801321A70B5
:1034F00000F0B4FA58B1AB0043F0010307EBC3018D
:1035000000F108024A601E4A47F8332009E0AB0088
:1035100043F00103002247F83320224B1A7801328E
:103520001A70AA0042F00201002347F8313042F03D
:10353000030247F8323001351D4B9E42BAD11EE2DC
:103540000A4B1B781B4D2B700127AAE0194D002355
:103550002B706B700227A4E0084B9B88042B37D993
:103560000F22154B1A70C1E080200740A896FF1F5C
:103570003196FF1FAA96FF1F0080FF1F9496FF1F22
:10358000C8004000C895FF1FA996FF1F148F0000B8
:103590002096FF1FCC95FF1F7496FF1F8496FF1F78
:1035A000DC95FF1F9E96FF1FC42007408800400047
:1035B000D4200740A096FF1FC0200740902007405E
:1035C0009420074098200740C298FF1F108F0000EA
:1035D000A04A0021117051709F4A12F8233013F055
:1035E000020F5CD09B4D01232B70022759E09B4BAF
:1035F0009B8803F07F03042B02DC984A52881AB19F
:103600000F22954B1A7071E0934A12F8231021F0A3
:10361000020102F82310B2E1904B9B8803F07F0374
:10362000042B02DC8D4A52881AB10F228A4B1A7081
:103630005CE0894A12F8231041F0020102F82310DD
:103640009DE1864B5E889F88854BA3F10C02114655
:1036500033F80C0CB04209D133F80A0CB84205D14A
:10366000360A032E0CBF2F7817891AE00D690C3328
:103670000C32002DEBD10F22774B1A7036E0794BCC
:103680001A68794B1A60754B9A78784B1A7076E104
:103690000F22714B1A7029E000273D4601E00227F6
:1036A0006C4D6E4BDB889F4228BF1F46402F34BFB6
:1036B0003E46402628463146FFF728FD3544BF1BCD
:1036C00003D13F2E00F2608110E0402F34BF3E4610
:1036D000402628463146FFF719FD3544BF1B01D16E
:1036E0003F2E03D9624B1D60624B1F8001238AF875
:1036F000003042E0594B198842F22103994212D11D
:103700005D4BD81D12F8011B03F8011F8342F9D14C
:103710005A4B1B68862B02D10F22594B1A7000207E
:103720000146FFF7F3FC574B45F8363025E0504B88
:103730001E68BEB14F4FB7F80080B8F1400F34BFDC
:103740004546402530462946FFF7E0FCC5EB080317
:103750009BB23B800BB9402D01D1354400E00025E0
:10376000434B1D603D4B1B88B3F5A06F05D13B4B10
:1037700000225A709B788BF8003001238AF80030C1
:10378000B9E0414E9F0806EBC708D8F80420A2F123
:103790000800013DEDB213F0080F47D000F07EF9AC
:1037A0003A4B53F825304BB35A68384941F8252035
:1037B00003F10802C8F80420354A525D032A12D8E2
:1037C000DFE802F002060A0E0321314A51550AE0F1
:1037D00002212F4A515506E005212D4A515502E09C
:1037E00004212B4A515518F0080F0CBF8822C8221B
:1037F0001B8842EA034346F837307CE0244B5B5D8C
:10380000032B0BD8DFE803F0777702060022204B6A
:103810005A5570E001221E4B5A556CE018F0080F03
:103820000CBF022203221A4B5A5564E056F8373077
:103830001B0C22F8083C002B55D0002322F8063C34
:1038400042F8043C134B53F825302BBB114B43F883
:10385000250025E0A096FF1FC02007409496FF1F7B
:10386000208F0000C495FF1FD498FF1FB896FF1F3C
:10387000C895FF1F9C96FF1FCB98FF1FCC98FF1F7A
:103880003196FF1FC80040000080FF1F7496FF1F85
:10389000DC95FF1F2096FF1F3F4B53F825305860E3
:1038A0003D4B43F825003D4B33F8151032F8082CFA
:1038B0000A4423F8152000F0D1F860B100F10803A4
:1038C000C8F8043018F0080F354B364A08BF1346C5
:1038D00046F837300FE0002346F83730324B1A787D
:1038E00001321A7007E018F0080F2D4B2D4A08BF5F
:1038F000134646F8373008232370F4E415F0010F1F
:1039000022D02A4902230B700022294B1A70294B1E
:1039100024481860284C5C6098602848D8601A6178
:103920009A610D20264B1870FF2326480370083833
:10393000037018300270244A13709F22234B1A70B0
:1039400001230B70BDE8F88F15F0800F05D00D2214
:103950001B4B1A708022403B1A7015F0020F06D0E4
:10396000184B1A78D2B21A700222083B1A7015F05E
:10397000100F0ED01022164B1A70BDE8F88F0020E1
:103980000146FFF7C3FBB1E628460021FFF7BEFB67
:10399000ACE6BDE8F88F00BFCC95FF1FC498FF1FB1
:1039A000C8004000880040009E96FF1F94200740FA
:1039B0003096FF1F0080FF1FE095FF1F3496FF1F0A
:1039C000C0200740882007408C2007408420074003
:1039D0008020074008B501F02DFE00231B491A4640
:1039E0005A50C81842600833882BF9D1184B1A680E
:1039F00042F480221A60154BC3F30721154A117057
:103A0000C3F30741143211701B0E04321370FF23ED
:103A1000343A137008321370783A137001238432E9
:103A2000137000216C3211707C3A137070220A4BB3
:103A30001A704FF40072A3F241331A60102203F19E
:103A4000C04303F5C8231A7008BD00BF0080FF1FE4
:103A5000348004409C20074049E400E072B60D4BDE
:103A60001A68B2FA82F30B2B02D962B600207047B3
:103A70004FF00041D94022EA010206490A6062B6CD
:103A8000054903EBC303DB00C8180022CA5042609B
:103A9000704700BF408BFF1F0084FF1F08B50F4B0E
:103AA000C31A0F4AA2FB03131B090B2B14D80D4A90
:103AB00012783AB10C4A127812F0FF0F02D0FFF7D9
:103AC0007DFB08BD72B6094A4FF0004121FA03F3AD
:103AD00011681943116062B608BD00BF0084FF1F62
:103AE000398EE3389E96FF1FA896FF1F408BFF1F5D
:103AF00010B5134B1B6853B9124B1B7813F0FF0F13
:103B000018D00320FFF726FB0D4B1860A8B10C4B13
:103B1000186843885A1C03441C7A03889A4206D3C7
:103B2000FFF7BCFF0022064B1A60204610BD428002
:103B3000204610BD4FF0FF3010BD4FF0FF3010BDDC
:103B4000B496FF1FA896FF1F08B50D4B1B6883B9DD
:103B50000C4B1B7813F0FF0F08D00320FFF7FAFA85
:103B6000074B186028B94FF0FF3008BD4FF0FF3009
:103B700008BD034B1B685A881344187A08BD00BF60
:103B8000B496FF1FA896FF1F044B9888044B1B6830
:103B90001BB11A885B88D31A18447047C498FF1F5A
:103BA000B496FF1F10B50B4B1B7813F0FF0F0FD00F
:103BB000094B186820B1FFF771FF0022064B1A600D
:103BC00003242046FFF7C6FA10B1FFF767FFF8E7B6
:103BD00010BD00BFA896FF1FB496FF1F2DE9F84F38
:103BE00004460122384B1A708B46002965D00E46D8
:103BF000DFF8E080DFF8E0909A46344FD8F80030E4
:103C000083BB99F8003013F0FF0F06D100222E4B32
:103C10001A704FF0FF30BDE8F88F4AF2F925042002
:103C2000FFF7B6FA07280AD801238AF80030FFF711
:103C300015FFC8F80000A8B900238AF80030013D3C
:103C400001D03B7833B10122204B1A704FF0FF3086
:103C5000BDE8F88F00F038FA99F8003013F0FF0F44
:103C6000DDD1D3E700233B70D8F800104A88C2F1B9
:103C70004005AE4238BF354602F108030B442A44E2
:103C80004A80761B3DB1254414F8012B03F8012B23
:103C9000AC42F9D100E025464B883F2B07D94023A1
:103CA0000B800420FFF7CEFA0023C8F8003005226D
:103CB000074B1A700EB12C46A0E70022024B1A7077
:103CC0005846BDE8F88F00BFAB96FF1FB096FF1FA8
:103CD000AA96FF1FAC96FF1FA896FF1F00B583B0E2
:103CE00002AB03F8010D18460121FFF777FF03B07F
:103CF0005DF804FB10B5144B1B7813F0FF0F21D0B7
:103D00000122124B1A70124B196851B10024114B49
:103D10001C704B880B800420FFF794FA0C4B1C603E
:103D20000DE0FFF79BFE014630B10022094B1A70EF
:103D30000420FFF787FA02E00122064B1A700022E6
:103D4000024B1A7010BD00BFA896FF1FAB96FF1F55
:103D5000AC96FF1FAA96FF1F08B50E4B1B7813F0F9
:103D6000FF0F16D10C4B196841B14B880B80042012
:103D7000FFF768FA0022084B1A6008BDFFF76EFED5
:103D8000014618B10420FFF75DFA08BD0122034B7C
:103D90001A7008BDAB96FF1FAC96FF1FAA96FF1FB7
:103DA00008B5FDF717F8FCF793FD00F08DF9FAE779
:103DB000F8B506460F46144652B1002533681B6815
:103DC000304617F8011B98470544013CF6D100E046
:103DD00000252846F8BD00BF00B583B0054B1B8801
:103DE000ADF8043003685B6801A90222984703B06C
:103DF0005DF804FBD88E0000F0B58BB0164622B9F2
:103E000003681B68C9B298472FE0012A08BF0A2639
:103E100021B930228DF82520212417E021243746AE
:103E2000B1FBF6F506FB1515EDB22246092D94BF40
:103E300030353735EDB20DF1280E724402F8245CAE
:103E4000B1FBF7F111B1013CE4B2E9E733B1013C58
:103E5000E4B20AAB23442D2203F8242C03685B68E8
:103E600001A92144C4F1220298470BB0F0BD00BF64
:103E700008B50029BABF49422D2300230A22FFF7C3
:103E8000BBFF08BDFFFFFFFF2DE9F04F85B0804667
:103E900014461D469DF838901046194601F0F4FD71
:103EA00040B9D8F800305B6840466749032298471C
:103EB0000746BEE02046294601F0E6FD012808D16C
:103EC000D8F800305B6840466049032298470746AF
:103ED000AFE0204629464FF060425D4B03F0F2FA16
:103EE00040B1D8F800305B6840465A4903229847F1
:103EF00007469EE0204629464FF06042564B03F0AD
:103F0000C3FA40B1D8F800305B68404651490322FB
:103F1000984707468DE0204629460022002303F0FB
:103F2000B3FA28B105F100431D464FF0010A01E044
:103F30004FF0000AB9F1000F6CD04FF0000B0022D7
:103F4000464B3FA7D7E900671046194632463B4625
:103F500003F028F802460B460BF1010B5FFA8BF1D8
:103F60008945F1D82CE04E462046294600223C4B9C
:103F700003F018F804460D4603F0AEFAC0B206F19D
:103F800001095FFA89F904AB1E4400F1300306F819
:103F9000103C02F0A1FF02460B462046294602F0E3
:103FA0004DFE04460D46D145DDD101E04FF0010A3A
:103FB000D8F800305B68404669465246984738E07A
:103FC0002046294602F03CFE04460D4603F084FAE2
:103FD000064602F071FF02460B462046294602F0D3
:103FE0002DFE04460D46404631460A225346FFF751
:103FF00003FF07462E238DF80030B9F10F0F34BFB1
:104000004B460F23002BD1D003F1010A5FFA8AFA45
:104010000126A9E7204629460022104B02F010FE97
:1040200003F05AFA014640460A225346FFF7E4FEDF
:104030000746384605B0BDE8F08F00BFAFF30080FB
:10404000000000A09999B93FDC8E0000E08E0000CE
:10405000FFFFEF41E48E0000FFFFEFC10000E03FF3
:1040600000002440AFF3008008B5FFF78DFD08BDC8
:1040700008B5FFF73DFD08BD08B5FFF765FD08BDB4
:1040800008B5FFF737FE08BD08B5FFF78BFD08BD83
:1040900008B50846FFF722FE08BD00BF08B5084670
:1040A0001146FFF79BFD08BD704700BF044B00227F
:1040B0001A714FF47A7199601A73024A1A60704744
:1040C000BC96FF1FF08E000008B50F4B1B78CBB9D4
:1040D00001220D4B1A70FFF757FD08B1FFF7E4FFFF
:1040E00000F03AFB08B101F07BFB00F0E7FE08B1FD
:1040F00001F018FC01F0B4F908B101F0B5FC0022A0
:10410000014B1A7008BD00BFCC96FF1F60223A4BCE
:104110001A70E12201331A70384B1B78082B10D12A
:10412000012203F1804303F56C331A6013233449F1
:104130000B6001F5FF2101F2FC710A60314A136046
:104140001FE00A2B0DD139222F4B1A6013232C4963
:104150000B6001F5FF2101F2FC710A60294A13602E
:104160000FE00C2B0CBF35223D22274B1A60122387
:1041700023490B6001F5FF2101F2FC710A60214A1D
:104180001360224B1B7833B10123214A136002F5DF
:104190000022136005E000231D4A136002F500228F
:1041A00013601C4B1B78012B06D880231A4A13601E
:1041B00002F5002213601AE0042B06D88423164A65
:1041C000136002F50022136011E0082B06D8852346
:1041D000114A136002F50022136008E0102B94BF0F
:1041E000862387230C4A136002F500221360012204
:1041F0000A4B1A70704700BF00400740448BFF1FF6
:104200000CB003400CB00B4008B00340CE96FF1F2B
:1042100020B00340458BFF1F24B00340CD96FF1F05
:1042200030B40023B0FBF2F402FB14041D46092C49
:1042300094BF30343734E4B2CC54B0FBF2F008B160
:104240000133EFE70D4400226A70934207DD885C7A
:10425000CC5C8C54C8540132013B9A42F7DB0846CF
:1042600030BC7047254B1A6842F480621A60002304
:10427000234A1370234A1370234A1370234A13707E
:10428000234A1370234B1B7813B1152B05D008E07C
:1042900040F21332204B1A6003E040F213321F4BFE
:1042A0001A601F4B1B78012B02D0052B05D008E0AC
:1042B0004FF451721B4B1A6003E04FF451721A4BCA
:1042C0001A60C0F34432194B1A70C0F347125A7087
:1042D00000F01F00987204229A700221D9745A7556
:1042E00088221A743C22DA704022114B1A704FF463
:1042F0000052A3F229331A60704700BF3480044093
:104300005C97FF1FD596FF1F6497FF1F5D97FF1FE8
:10431000D496FF1F1897FF1F40A0044018C0044008
:10432000468BFF1F44A004401CC0044000A0064070
:104330002DE400E0164B9B7803F0EC0300F0030241
:10434000134310F0040F18BF43F01003104A93708A
:1043500000F00F03042B04D11346927942F040027F
:104360009A710B4B5A7902F0EF0210F0100F18BF40
:1043700042F01002064B5A719B7903F0EF0310F0E4
:10438000200F18BF43F01003014A9371704700BF1C
:1043900000A0064010B5144B1B6813F4806F21D0A9
:1043A000124B1B7813F0FF0F06D0104CFFF78CFE5A
:1043B000237813F0FF0FF9D14FF400520C4B1A6021
:1043C00000230C4AD37040F203120B490A600431F7
:1043D0000A600A4A13700A4A13700A4B1B680BB131
:1043E00001221A7010BD00BF34800440D496FF1F14
:1043F00084E100E000A0064040A004405C97FF1F5D
:10440000D596FF1FD096FF1F10B50446094A1378B2
:1044100013F0FF0FFBD120460121FEF723FD2046BC
:104420000021FEF7FBFC044B53F83420034B1A60C9
:1044300010BD00BFD496FF1FC88D00006097FF1FFE
:1044400010B40C4609B140F08000184B1B7898421C
:1044500028D0174A126812F4806F21D003F07F032E
:10446000012B02D0052B04D006E00022114B1A606C
:1044700002E00022104B1A60002C0CBF4422602284
:1044800000F07F03012B02D0052B05D008E042F499
:104490004072084B1A6003E042F44072064B1A6007
:1044A000024B18705DF8044B704700BF468BFF1F2E
:1044B0003480044044A004401CC00440114B1B78CD
:1044C00098421ED0104A126812F4806F17D013B1B0
:1044D000152B04D006E000220C4B1A6002E00022EB
:1044E0000B4B1A6010B1152805D008E040F21332CA
:1044F000064B1A6003E040F21332054B1A60014B81
:10450000187070471897FF1F3480044040A0044083
:1045100018C0044010B50D4B1B6813F4806F12D007
:1045200021280CD80A4C0B4B53F830302360012162
:10453000FEF798FC236800221A70012010BD0020AD
:10454000034B186010BD002010BD00BF3480044034
:10455000D096FF1FC88D0000114B1B6813F4806FAD
:104560001BD0122804D140F202320E4B1A600DE02B
:10457000142804D140F202320B4B1A6006E00B4BB8
:104580005A7B02F0FE025A7300207047074B5A7B99
:1045900042F001025A73012070470020704700BFAB
:1045A000348004400CA0044014C0044000A0064025
:1045B0002DE9F04107461F4B1B6813F4806F37D07D
:1045C0001D4B1B680BB101221A701C4B1C78013467
:1045D000402C28BF00241A4D1A4EDFF86C8017E0DB
:1045E000FEF7A0FB40280FDC337913F0800F0FD0CB
:1045F0002B780133402B28BF002318F80320D2B2B8
:10460000F271DBB22B7003E0FF2801DDFFF75CFDE8
:104610002B78DBB29C42E3D0FFB20B4B1F5501223B
:104620000A4B1A70E4B2054B1C70BC22054BDA70C1
:10463000BDE8F081348004406097FF1F6497FF1F3E
:104640005D97FF1F00A00640D896FF1FD496FF1F5E
:104650002DE9F84F0746284B1B6813F4806F49D0AB
:10466000264B1B680BB101221A7007EB010B5F454B
:104670003DD2DFF89890224EDFF88C80DFF890A0D2
:1046800099F800400134402C28BF00243578EDB261
:10469000A54220D1BC2388F80330FEF743FB402815
:1046A00011DC98F8043013F0800F10D03378013308
:1046B000402B28BF00231AF80320D2B288F8072025
:1046C000DBB2337003E0FF2801DDFFF7FDFC337838
:1046D000DBB29D42E1D017F8013B0AF80430012219
:1046E000084B1A70E4B289F800405F45C8D1BC227B
:1046F000054BDA70BDE8F88F348004406097FF1FE7
:104700005D97FF1FD496FF1F00A006406497FF1F10
:10471000D896FF1F10B5064B1B7813F0FF0F06D07D
:10472000034CFFF7D1FC237813F0FF0FF9D110BD34
:10473000D496FF1F064B1B78DBB2064A1278D2B222
:1047400093422CBF3F3202F1FF32D01A704700BFB4
:104750006497FF1F5D97FF1F054B1878C0B2054B8C
:104760001B78DBB2984238BF4030C01A704700BF98
:104770005C97FF1FD596FF1F10B4184B1A78D2B262
:10478000174B1B78DBB29A4218D001333F2B18D855
:104790001449C85CC0B2DCB211490C7012490968F6
:1047A000C9B19A4203D300E00023D31A01E040329A
:1047B000D31A1A2B0FDC00230B700CE04FF0FF30E4
:1047C00009E0084B1878C0B20021054B1970064B60
:1047D00019680029E8D15DF8044B70475C97FF1F0A
:1047E000D596FF1F1C97FF1FD096FF1F094B1A7805
:1047F000D2B2094B1B78DBB29A4207D00133402B6F
:1048000028BF0023054AD05CC0B270474FF0FF308C
:10481000704700BF5C97FF1FD596FF1F1C97FF1FB7
:104820000D4B1B6813F4806F14D00C4BDA7802F038
:10483000CB02DA7040225A74DA7842F03402DA702D
:10484000074B1A78D2B2074B1A70074B1B680BB193
:1048500000221A70704700BF3480044000A0064058
:10486000D596FF1F5C97FF1FD096FF1F70B43D4B7E
:104870001B7913F0300F33D072B63A4B9B7D03F0A7
:10488000FF022BB9374BDA7940225A7462B627E01F
:1048900062B6354B1978C9B2344B1C78E4B2314D4D
:1048A000334EEB79D8B24B1C402B28BF0023A342D8
:1048B0001CBFF0541946531E13F0FF02F1D1CAB2C7
:1048C000294B1A702B4B1B6853B1A1422EBFC4EB6E
:1048D0000101C4F1400409192729C4BF01221A703B
:1048E000204BDA78D2B212F0800F27D01B7913F068
:1048F000800F23D0204B1C78E4B2204B1B78DBB216
:104900009C4210D017491E4D01E0A3420BD0013349
:10491000402B28BF00230879E85CC0B2C871087D2D
:10492000C0B20728F1D9DBB214490B700D4B1B79CB
:1049300013F0800F02D07C210A4BD97012F0400F87
:104940000ED0084B1B7913F0400F09D000220D4BFD
:104950001A700D4B1B6803B11A703C22014BDA70C0
:1049600070BC704700A006405C97FF1FD596FF1FE4
:104970001C97FF1FD096FF1F6497FF1F5D97FF1FB7
:10498000D896FF1FD496FF1F6097FF1F254B1A680C
:1049900042F400621A600023234A1370234A137002
:1049A000234A1370234A1370234A1370234B1B7836
:1049B000092B02D01A2B05D008E040F21332204B0D
:1049C0001A6003E040F213321E4B1A601E4B1B7834
:1049D0000A2B02D01F2B05D008E04FF451721B4B5D
:1049E0001A6003E04FF45172194B1A60C0F344325D
:1049F000184B1A70C0F347125A7000F01F009872DB
:104A000004229A700221D9745A7588221A743C22A1
:104A1000DA704022104B1A704FF40042A3F22B338D
:104A20001A60704734800440D897FF1F6D97FF1FAE
:104A3000E097FF1FD997FF1F6C97FF1F478BFF1F42
:104A40000CB0044004D00440488BFF1F10B0044059
:104A500000D0044000B006402FE400E0164B9B78E5
:104A600003F0EC0300F00302134310F0040F18BF2F
:104A700043F01003104A937000F00F03042B04D18D
:104A80001346927942F040029A710B4B5A7902F028
:104A9000EF0210F0100F18BF42F01002064B5A71CF
:104AA0009B7903F0EF0310F0200F18BF43F01003C1
:104AB000014A9371704700BF00B0064010B5224B09
:104AC0001B6813F4006F3ED0204B1B7813F0FF0FD0
:104AD00006D01E4CFFF7F8FA237813F0FF0FF9D138
:104AE0004FF400421A4B1A6000221A4BDA701A4B2C
:104AF0001B78092B02D01A2B05D008E040F20312D4
:104B0000164B1A6003E040F20312154B1A60154B66
:104B10001B7803F07F030A2B02D01F2B05D008E07F
:104B200040F20312104B1A6003E040F203120F4BE5
:104B30001A6000230E4A13700E4A13700E4B1B6846
:104B40000BB101221A7010BD348004406C97FF1F16
:104B500084E100E000B00640478BFF1F0CB004402A
:104B600004D00440488BFF1F10B0044000D0044024
:104B7000D897FF1F6D97FF1F6897FF1F10B504465A
:104B8000094A137813F0FF0FFBD120460121FEF7ED
:104B900069F920460021FEF741F9044B53F834200F
:104BA000034B1A6010BD00BF6C97FF1FC88D00003B
:104BB000DC97FF1F10B40C4609B140F08000184B81
:104BC0001B78984228D0174A126812F4006F21D03F
:104BD00003F07F030A2B02D01F2B04D006E0002233
:104BE000114B1A6002E00022104B1A60002C0CBF1F
:104BF0004422602200F07F030A2B02D01F2B05D035
:104C000008E042F44072084B1A6003E042F440723C
:104C1000064B1A60024B18705DF8044B704700BFDA
:104C2000488BFF1F3480044010B0044000D0044083
:104C3000124B1B78984220D0114A126812F4006F70
:104C400019D0092B02D01A2B04D006E000220D4BFC
:104C50001A6002E000220C4B1A60092802D01A28C0
:104C600005D008E040F21332064B1A6003E040F230
:104C70001332054B1A60014B18707047478BFF1FAA
:104C8000348004400CB0044004D0044010B50D4BF7
:104C90001B6813F4006F12D021280CD80A4C0B4B60
:104CA00053F8303023600121FEF7DCF8236800223E
:104CB0001A70012010BD0020034B186010BD0020A9
:104CC00010BD00BF348004406897FF1FC88D0000EE
:104CD0000D4B1B6813F4006F13D017280AD140F254
:104CE00002320A4B1A600A4B5A7B42F001025A7395
:104CF00001207047064B5A7B02F0FE025A730020D7
:104D000070470020704700BF3480044008B0044062
:104D100000B006402DE9F04107461F4B1B6813F415
:104D2000006F37D01D4B1B680BB101221A701C4B52
:104D30001C780134282C28BF00241A4D1A4EDFF8A5
:104D40006C8017E0FDF7EEFF40280FDC337913F09D
:104D5000800F0FD02B780133282B28BF002318F8A1
:104D60000320D2B2F271DBB22B7003E0FF2801DD29
:104D7000FFF7AAF92B78DBB29C42E3D0FFB20B4BD2
:104D80001F5501220A4B1A70E4B2054B1C70BC225D
:104D9000054BDA70BDE8F08134800440DC97FF1FDA
:104DA000E097FF1FD997FF1F00B006407097FF1FC5
:104DB0006C97FF1F2DE9F84F0746284B1B6813F42B
:104DC000006F49D0264B1B680BB101221A7007EB0C
:104DD000010B5F453DD2DFF89890224EDFF88C80C2
:104DE000DFF890A099F800400134282C28BF002457
:104DF0003578EDB2A54220D1BC2388F80330FDF709
:104E000091FF402811DC98F8043013F0800F10D087
:104E100033780133282B28BF00231AF80320D2B29D
:104E200088F80720DBB2337003E0FF2801DDFFF7CD
:104E30004BF93378DBB29D42E1D017F8013B0AF819
:104E400004300122084B1A70E4B289F800405F4533
:104E5000C8D1BC22054BDA70BDE8F88F348004401D
:104E6000DC97FF1FD997FF1F6C97FF1F00B006400C
:104E7000E097FF1F7097FF1F10B5064B1B7813F0CC
:104E8000FF0F06D0034CFFF71FF9237813F0FF0F35
:104E9000F9D110BD6C97FF1F064B1B78DBB2064A99
:104EA0001278D2B293422CBF273202F1FF32D01ACD
:104EB000704700BFE097FF1FD997FF1F054B187879
:104EC000C0B2054B1B78DBB2984238BF4030C01AE5
:104ED000704700BFD897FF1F6D97FF1F10B4184B86
:104EE0001A78D2B2174B1B78DBB29A4218D0013332
:104EF0003F2B18D81449C85CC0B2DCB211490C7001
:104F000012490968C9B19A4203D300E00023D31AB9
:104F100001E04032D31A1A2B0FDC00230B700CE097
:104F20004FF0FF3009E0084B1878C0B20021054B64
:104F30001970064B19680029E8D15DF8044B7047D9
:104F4000D897FF1F6D97FF1F9897FF1F6897FF1F48
:104F5000094B1A78D2B2094B1B78DBB29A4207D0C0
:104F60000133402B28BF0023054AD05CC0B27047F4
:104F70004FF0FF30704700BFD897FF1F6D97FF1F9E
:104F80009897FF1F0D4B1B6813F4006F14D00C4B48
:104F9000DA7802F0CB02DA7040225A74DA7842F002
:104FA0003402DA70074B1A78D2B2074B1A70074BEB
:104FB0001B680BB100221A70704700BF3480044098
:104FC00000B006406D97FF1FD897FF1F6897FF1F1F
:104FD00070B43D4B1B7913F0300F33D072B63A4B9F
:104FE0009B7D03F0FF022BB9374BDA7940225A74CC
:104FF00062B627E062B6354B1978C9B2344B1C78DB
:10500000E4B2314D334EEB79D8B24B1C402B28BF64
:105010000023A3421CBFF0541946531E13F0FF0295
:10502000F1D1CAB2294B1A702B4B1B6853B1A14264
:105030002EBFC4EB0101C4F1400409192729C4BFE4
:1050400001221A70204BDA78D2B212F0800F27D0EA
:105050001B7913F0800F23D0204B1C78E4B2204B37
:105060001B78DBB29C4210D017491E4D01E0A342D1
:105070000BD00133282B28BF00230879E85CC0B28D
:10508000C871087DC0B20728F1D9DBB214490B7092
:105090000D4B1B7913F0800F02D07C210A4BD97085
:1050A00012F0400F0ED0084B1B7913F0400F09D0BF
:1050B00000220D4B1A700D4B1B6803B11A703C2275
:1050C000014BDA7070BC704700B00640D897FF1FE4
:1050D0006D97FF1F9897FF1F6897FF1FE097FF1FAF
:1050E000D997FF1F7097FF1F6C97FF1FDC97FF1F5B
:1050F000174B1A6842F480521A600023154A137045
:10510000154A1370154A1370154A1370154A137017
:1051100040F21331144A11604FF45171043211609E
:10512000C0F34431114A1170C0F34711517000F0BF
:105130001F009072937013742C23D37040220C4B79
:105140001A704FF40032A3F22D331A60704700BF7B
:10515000348004405498FF1FE997FF1F5C98FF1F9D
:105160005598FF1FE897FF1F08C0044000C0064085
:1051700031E400E0164B9B7803F0EC0300F00302EF
:10518000134310F0040F18BF43F01003104A93703C
:1051900000F00F03042B04D11346927942F0400231
:1051A0009A710B4B5A7902F0EF0210F0100F18BFF2
:1051B00042F01002064B5A719B7903F0EF0310F096
:1051C000200F18BF43F01003014A9371704700BFCE
:1051D00000C0064010B5144B1B6813F4805F21D04B
:1051E000124B1B7813F0FF0F06D0104CFEF76CFF2C
:1051F000237813F0FF0FF9D14FF400320C4B1A60F3
:1052000000230C4AD37040F203120B490A600431A8
:105210000A600A4A13700A4A13700A4B1B680BB1E2
:1052200001221A7010BD00BF34800440E897FF1FB0
:1052300084E100E000C0064008C004405498FF1F0D
:10524000E997FF1FE497FF1F10B50446094A13783A
:1052500013F0FF0FFBD120460121FDF703FE20468E
:105260000021FDF7DBFD044B53F83420034B1A609B
:1052700010BD00BFE897FF1FC88D00005898FF1FA2
:1052800010B40C4609B140F08000104B1B789842D6
:1052900019D00F4A126812F4805F12D003F07F0316
:1052A000082B02D100220B4B1A60002C0CBF4422A9
:1052B000602200F07F03082B03D142F44072054BBB
:1052C0001A60024B18705DF8044B7047498BFF1F42
:1052D000348004400CC00440704700BF10B50D4B33
:1052E0001B6813F4805F12D021280CD80A4C0B4B9A
:1052F00053F8303023600121FDF7B4FD236800220C
:105300001A70012010BD0020034B186010BD002052
:1053100010BD00BF34800440E497FF1FC88D00001B
:105320000D4B1B6813F4805F13D00E280AD140F296
:1053300002320A4B1A600A4B5A7B42F001025A733E
:1053400001207047064B5A7B02F0FE025A73002080
:1053500070470020704700BF3480044004C0044000
:1053600000C006402DE9F04107461F4B1B6813F4AF
:10537000805F37D01D4B1B680BB101221A701C4B8C
:105380001C780134282C28BF00241A4D1A4EDFF84F
:105390006C8017E0FDF7C6FC40280FDC337913F072
:1053A000800F0FD02B780133282B28BF002318F84B
:1053B0000320D2B2F271DBB22B7003E0FF2801DDD3
:1053C000FEF782FE2B78DBB29C42E3D0FFB20B4BA0
:1053D0001F5501220A4B1A70E4B2054B1C70AC2217
:1053E000054BDA70BDE8F081348004405898FF1F07
:1053F0005C98FF1F5598FF1F00C00640EC97FF1FE9
:10540000E897FF1F38B505460C4629B115F8010B82
:10541000FFF7A8FF013CF9D138BD00BF10B5064B1E
:105420001B7813F0FF0F06D0034CFEF74DFE2378D8
:1054300013F0FF0FF9D110BDE897FF1F064B1B7843
:10544000DBB2064A1278D2B293422CBF273202F165
:10545000FF32D01A704700BF5C98FF1F5598FF1F9E
:10546000054B1878C0B2054B1B78DBB2984238BFA9
:105470004030C01A704700BF5498FF1FE997FF1FC4
:1054800010B4184B1A78D2B2174B1B78DBB29A4281
:1054900018D001333F2B18D81449C85CC0B2DCB215
:1054A00011490C7012490968C9B19A4203D300E04E
:1054B0000023D31A01E04032D31A1A2B0FDC002349
:1054C0000B700CE04FF0FF3009E0084B1878C0B2C9
:1054D0000021054B1970064B19680029E8D15DF8C9
:1054E000044B70475498FF1FE997FF1F1498FF1F44
:1054F000E497FF1F094B1A78D2B2094B1B78DBB235
:105500009A4207D00133402B28BF0023054AD05CC4
:10551000C0B270474FF0FF30704700BF5498FF1F74
:10552000E997FF1F1498FF1F054B1A78D2B2054B5D
:105530001A70054B1B680BB100221A70704700BF30
:10554000E997FF1F5498FF1FE497FF1F2F4B1B790C
:1055500013F0200F23D02D4BDB79D9B22C4B1B78C5
:105560000133402B28BF00232A4A1278D2B29A4234
:1055700004D0294AD154D9B2254A1170274A11685A
:1055800069B1274A1278D2B293422EBFC2EB03030D
:10559000C2F140029B18272BC4BF01230B701B4B89
:1055A000DB78DBB213F0800F1CD0184A127912F0AE
:1055B000800F17D01B4A1178C9B2194A1278D2B29B
:1055C000914203D16C21114AD1700BE00132282A9B
:1055D00028BF00221449885CC0B20C49C871D2B2FD
:1055E0000F490A7013F0400F0ED0084B1B7913F0CF
:1055F000400F09D000220D4B1A700D4B1B6803B1F0
:105600001A702C22014BDA70704700BF00C00640B0
:105610005498FF1FE997FF1F1498FF1FE497FF1F7F
:105620005598FF1F5C98FF1FEC97FF1FE897FF1F1F
:105630005898FF1F00B585B072B61B4B70221A70C8
:1056400041211A4A11700F21013A117080221A70FB
:105650001A46137813F0800FFBD0154B186862B60A
:10566000144B98429CBF00EB8000400001A90A2225
:10567000FEF7D6FD9DF804307BB908E001A9595C1E
:1056800031B19180023201330A2BF7D100E00023BF
:1056900001335B00084A137003E0074A538001237B
:1056A000ECE705B05DF804FB000002400700024093
:1056B000080002407F969800D88BFF1F08B503684A
:1056C0001B68C9B2984708BD08B503681B68C9B212
:1056D000984708BD08B503681B68C9B2984708BD5C
:1056E00008B503681B68C9B2984708BD08B54B08E0
:1056F00003F1376000F5D830B0FBF1F0FEF7B2FDF2
:1057000008BD00BF10B514464B0803F1376000F523
:10571000D830B0FBF1F0FEF7A5FD2046FEF70AFEFB
:1057200010BD00BF08B5FEF735FE08BD08B5084638
:10573000FEF76AFE08BD00BF08B50846FEF7BEFECC
:1057400008BD00BF08B508461146FEF779FE08BD42
:1057500008B50846FEF7DEFE003018BF012008BD80
:1057600008B50846FEF7F8FE003018BF012008BD56
:1057700008B5FEF7F1FF08BD08B5FFF737F808BD1B
:1057800008B5FEF7F9FF08BD08B5FEF7C3FF08BD71
:1057900008B5FFF745F808BD08B5FEF7CBFF08BD13
:1057A00008B50846FEF704FF012008BD08B5084605
:1057B000FEF7FEFE012008BD10B51446084611464E
:1057C000FEF746FF204610BD38B50D46084602F0EC
:1057D000F9FC044628462146FEF73AFF204638BD2C
:1057E000704700BF044B00221A714FF47A71996020
:1057F0001A73024A1A6070476098FF1F708F00008A
:1058000008B503681B68C9B2984708BD08B50368A6
:105810001B68C9B2984708BD08B503681B68C9B2C0
:10582000984708BD08B503681B68C9B2984708BD0A
:1058300008B54B0803F1376000F5D830B0FBF1F044
:10584000FFF7A4F808BD00BF10B514464B0803F1DC
:10585000376000F5D830B0FBF1F0FFF797F820463D
:10586000FFF7FCF810BD00BF08B5FFF727F908BD2A
:1058700008B50846FFF782F908BD00BF08B508461D
:10588000FFF7D6F908BD00BF08B508461146FFF777
:1058900091F908BD08B50846FFF7F8F9003018BFC0
:1058A000012008BD08B50846FFF712FA003018BFFE
:1058B000012008BD08B5FFF701FB08BD08B5FFF7DB
:1058C00047FB08BD08B5FFF709FB08BD08B5FFF7A2
:1058D000D3FA08BD08B5FFF755FB08BD08B5FFF7BB
:1058E000DBFA08BD08B50846FFF714FA012008BD29
:1058F00008B50846FFF70EFA012008BD10B514469A
:1059000008461146FFF756FA204610BD38B50D4639
:10591000084602F057FC044628462146FFF74AFA9B
:10592000204638BD704700BF044B00221A714FF467
:105930007A7199601A73024A1A6070477098FF1F53
:10594000D08F000008B503681B68C9B2984708BD2E
:1059500008B503681B68C9B2984708BD08B5036855
:105960001B68C9B2984708BD08B503681B68C9B26F
:10597000984708BD08B54B0803F1B76000F55840DB
:10598000B0FBF1F0FFF7B4FB08BD00BF10B5144643
:105990004B0803F1B76000F55840B0FBF1F0FFF79A
:1059A000A7FB2046FFF7E6FB10BD00BF08B5FFF7D9
:1059B00011FC08BD08B50846FFF746FC08BD00BF4E
:1059C00008B50846FFF788FC08BD00BF08B50846C3
:1059D0001146FFF755FC08BD08B50846FFF77EFCE9
:1059E000003018BF012008BD08B50846FFF798FC35
:1059F000003018BF012008BD08B5FFF731FD08BD14
:105A000008B5FFF777FD08BD08B5FFF739FD08BDFC
:105A100008B5FFF703FD08BD08B5FFF785FD08BD14
:105A200008B5FFF70BFD08BD08B50846FFF79AFC5F
:105A3000012008BD08B50846FFF794FC012008BD09
:105A400010B5144608461146FFF7DCFC204610BD91
:105A500038B50D46084602F0B5FB044628462146F7
:105A6000FFF7D0FC204638BD704700BF044B002232
:105A70001A714FF47A7199601A73024A1A6070476A
:105A80008098FF1F3090000031F0004310B408D020
:105A90000F4AA3F5801494420AD804205DF8044B01
:105AA000704700280CBF022003205DF8044B7047AC
:105AB000B3F5801F01D20320F7E7064A934201D0D5
:105AC0000020F2E7D0F1010038BF0020EDE700BF71
:105AD000FFFFDF7F0000F07F2DE9F04FDFF8B8A275
